:040000000128FE2BAA
:10032E001630210097000800210099019801220043
:10033E00960108008131AB21813181319B218131C0
:10034E00813197218131080022008C010F3021006C
:10035E008C0023008C0124008C01210095172500B0
:10036E008C01373026008C003F3027008C00220095
:10037E009D01080000308B1B0130F2008B137008BA
:10038E00230091007108920015131514000000004F
:10039E00720C031C8B1303188B1723001408F10027
:1003AE001308F000080000308B1B0130F2008B1395
:1003BE00700823009100710892001513151615157B
:1003CE0055309600AA3096009514000000002300C8
:1003DE001511720C031C8B1303188B170800F030C9
:1003EE0020002005A60003302105A70020080F39A4
:1003FE00A500A80128082607F00027080318270AD9
:10040E00F1008131C1218131200028352207FD0004
:10041E007D08860087017008C03F7108C13F01301A
:10042E00FD007D08A80710302802031C1F2A202A71
:10043E00012A25352207FD007D0886008701230845
:10044E00C03F2408C13F2708F4002608F300220805
:10045E00F5008231342281310800F0307305F90045
:10046E0003307405FA0000308B1B0130FB007A0854
:10047E007406031D442A790873060319472A482A6D
:10048E00492A922A8B137408F1007308F000813107
:10049E00DA2182312300151315159516FC01730808
:1004AE0023009100740892007C357507F6007608DB
:1004BE0086008701010893007C357507F6007608E3
:1004CE0086008701403FF700413FF800780894000E
:1004DE000F307C06031D742A752A762A9512553024
:1004EE009600AA3096009514000000000130F30724
:1004FE000030F43D0130F6007608FC0710307C0227
:10050E00031C8A2A8B2A562A230015117B0C031CE6
:10051E008B1303188B1708008131A1218231803093
:10052E002000CC000330CD008030F0000330F1000D
:10053E008131C121823171082000CF007008CE00B8
:10054E004E084F040319AC2AAD2ACA2A00304F02B6
:10055E00053003194E020318B52AB62ACA2A4E08C8
:10056E00013ECE0000304F3DCF008030A000033062
:10057E00A1002B30A2004F08A4004E08A300813129
:10058E00F6218231C82B0130CE000030CF008030F2
:10059E00A0000330A1002B30A2000130A3000030D8
:1005AE00A4008131F6218231C82BCB01F12A9B3078
:1005BE000032890BDF2A22000C128C169B3000327F
:1005CE00890BE62A22000C168C1601302000A90099
:1005DE002908CB070B304B02031CF62AF72ADE2A1A
:1005EE006300E22B22000C128C168130890BFD2A3F
:1005FE0022000C168C169B300032890B032B220026
:10060E000C128C168130890B0A2B22000C168C16BC
:10061E009B300032890B102B22000C128C1681306D
:10062E00890B172B22000C168C1602302000AA0004
:10063E001630A9004630890B222BA90B222BAA0BB0
:10064E00222B0000E22B22000C128C169B30003263
:10065E00890B2E2B22000C168C169B300032890B28
:10066E00352B22000C128C169B300032890B3C2B42
:10067E0022000C168C1604302000AA004030A9006F
:10068E00DD30890B482BA90B482BAA0B482B0000F9
:10069E00E22B22000C128C1603302000A9008230AF
:1006AE00890B572BA90B572B003222000C168C16D8
:1006BE0012302000AA005530A900A630890B652BF8
:1006CE00A90B652BAA0B652B0000E22B22000C1246
:1006DE008C1603302000A9008230890B742BA90BD5
:1006EE00742B003222000C168C169B300032890BB4
:1006FE007D2B22000C128C1603302000A9008230B4
:10070E00890B872BA90B872B003222000C168C1617
:10071E009B300032890B902B22000C128C169B30D2
:10072E000032890B972B22000C168C162C302000D1
:10073E00AA005430A900A330890BA32BA90BA32B1D
:10074E00AA0BA32B0000E22B22000C128C160630F3
:10075E002000A9000630890BB22BA90BB22B003258
:10076E0022000C168C1641302000AA00FE30A90083
:10077E007630890BC02BA90BC02BAA0BC02B000007
:10078E00E22B20004F08003A0319CE2BE22B4E0825
:10079E00003A0319DC2A013A0319F92A033A03191C
:1007AE002A2B013A0319502B073A03196D2B013AE4
:1007BE000319AB2BE22B20004E084F040319E82B34
:1007CE00E92BC82B4E08FF3ECE00FF304F3DCF0029
:1007DE004D08A1004C08A0002B30A2004F08A40029
:1007EE004E08A3008131F6218231C82B012820004A
:0207FE00932A3C
:020000040001F9
:08000000FF3FFF3FFF3FFF3F00
:04000E00E43FFF3E8E
:00000001FF
